:100000000C942A000C941D0B0C944A0B0C94770B47
:100010000C9447000C9447000C94F1090C948B0944
:100020000C94BE090C9458090C94570A0C94240A99
:100030000C9447000C9447000C9447000C94470024
:100040000C9447000C9447000C9447000C94470014
:100050000C94470011241FBECFE5D8E0DEBFCDBF12
:1000600011E0A0E6B0E0ECEBFDE402C005900D92DB
:10007000A635B107D9F711E0A6E5B1E001C01D92A0
:10008000A238B107E1F70E949E250C94DC260C945F
:100090000000EF92FF920F931F937B018C0120E0F1
:1000A00030E040E05FE40E94490388238CF0C801FF
:1000B000B70120E030E040E05FE40E94C1010E940F
:1000C000A9039B01AC01205030404040504806C07D
:1000D000C801B7010E94A9039B01AC01B901CA0183
:1000E0001F910F91FF90EF900895A0E0B0E0EBE733
:1000F000F0E00C94A526DC012B01FA019C919230D2
:1001000008F439C1EB018881823008F433C194309E
:1001100069F4843009F02FC111969C91119789815F
:10012000981709F428C1AEE2B1E025C1843009F482
:1001300021C18230A9F4923009F01DC19A01AD01AC
:1001400088E0EA010990AE01E90109929E0181501F
:10015000C1F7E201898111969C918923818308C1AD
:10016000923009F407C112962D903C901397EB0141
:100170008A819B811496AD90BD90CD90DC901797AD
:10018000EC80FD800E811F819101281B390BB90184
:1001900037FF04C066277727621B730B6032710537
:1001A0000CF061C0121613066CF537014801062EDB
:1001B00004C096948794779467940A94D2F721E0C8
:1001C00030E040E050E004C0220F331F441F551FB1
:1001D0006A95D2F721503040404050402E213F21B7
:1001E00040235123211531054105510521F021E01E
:1001F00030E040E050E079018A01E628F72808293C
:1002000019293CC0232BD1F1260E371E350146019A
:10021000062E04C096948794779467940A94D2F734
:1002200021E030E040E050E004C0220F331F441FC3
:10023000551F6A95D2F721503040404050402A2146
:100240003B214C215D21211531054105510521F04E
:1002500021E030E040E050E059016A01A628B728CB
:10026000C828D9280BC0821593052CF01C01AA249C
:10027000BB24650103C0EE24FF24870111969C91E5
:10028000D20111968C91981709F445C0992339F041
:10029000A80197012A193B094C095D0906C0A6016E
:1002A00095012E193F09400B510B57FD08C01182D3
:1002B0003382228224833583468357831DC081E0A5
:1002C00081833382228288279927DC01821B930B4A
:1002D000A40BB50B84839583A683B7830DC0220F2F
:1002E000331F441F551F24833583468357838281E0
:1002F000938101979383828324813581468157813D
:10030000DA01C9010197A109B1098F5F9F4FAF4F72
:10031000BF4328F30BC0918333822282EA0CFB1C7B
:100320000C1D1D1DE482F5820683178383E0808304
:10033000248135814681578157FF1AC0C901AA27F8
:1003400097FDA095BA2F81709070A070B0705695EF
:10035000479537952795822B932BA42BB52B848318
:100360009583A683B7838281938101969383828349
:10037000DF0101C0D201CD01CDB7DEB7E2E10C94BF
:10038000C126A0E2B0E0E7ECF1E00C94B12669836D
:100390007A838B839C832D833E834F835887E9E048
:1003A000EE2EF12CEC0EFD1ECE010196B7010E943F
:1003B000D2048E010F5E1F4FCE010596B8010E9438
:1003C000D2048A8991E089278A8BC701B801AE01DE
:1003D000475E5F4F0E9475000E94FD03A096E6E015
:1003E0000C94CD26A0E2B0E0E8EFF1E00C94B12649
:1003F00069837A838B839C832D833E834F835887C5
:10040000F9E0EF2EF12CEC0EFD1ECE010196B701A6
:100410000E94D2048E010F5E1F4FCE010596B801D7
:100420000E94D204C701B801AE01475E5F4F0E942F
:1004300075000E94FD03A096E6E00C94CD26A0E294
:10044000B0E0E5E2F2E00C94A52669837A838B8321
:100450009C832D833E834F835887CE010196BE0136
:10046000675F7F4F0E94D204CE010596BE016F5E8A
:100470007F4F0E94D2049985923088F0898982301A
:10048000C8F0943019F4823051F404C0843029F457
:10049000923081F48EE291E0C6C0923049F420E0BF
:1004A0009A858A89981321E02A87CE010996BBC0D4
:1004B000823049F420E09A858A89981321E02A8BBA
:1004C000CE014196B0C02D843E844F8458886D88FB
:1004D0007E888F88988CEE24FF248701AA24BB2471
:1004E000650140E050E060E070E0E0E0F0E0C10174
:1004F00081709070892BE9F0E60CF71C081D191D1E
:100500009A01AB012A0D3B1D4C1D5D1D80E090E062
:10051000A0E0B0E0E614F7040805190520F481E036
:1005200090E0A0E0B0E0BA01A901480F591F6A1F8E
:100530007B1FAA0CBB1CCC1CDD1C97FE08C081E0F5
:1005400090E0A0E0B0E0A82AB92ACA2ADB2A3196B6
:10055000E032F10549F0660C771C881C991C569412
:10056000479437942794C3CFFA85EA892B893C892D
:100570008B859C85280F391F2E5F3F4F17C0CA01FE
:1005800081709070892B61F016950795F794E79428
:1005900080E090E0A0E0B0E8E82AF92A0A2B1B2BC3
:1005A00076956795579547952F5F3F4F77FDE7CF36
:1005B0000CC0440F551F661F771F17FD4160EE0CDE
:1005C000FF1C001F111F21503040403090E05907A0
:1005D00090E0690790E4790760F32B8F3C8FDB0193
:1005E000CA018F779070A070B07080349105A1051A
:1005F000B10561F447FD0AC0E114F10401051105DC
:1006000029F0405C5F4F6F4F7F4F40781A8EFE1786
:1006100011F081E08A8F4D8F5E8F6F8F78A383E01A
:10062000898FCE0149960E94FD03A096E2E10C94C9
:10063000C126A8E1B0E0EFE1F3E00C94B1266983B4
:100640007A838B839C832D833E834F83588789E0F5
:10065000E82EF12CEC0EFD1ECE010196B7010E9492
:10066000D2048E010F5E1F4FCE010596B8010E9485
:10067000D2048985823040F08989823028F0C70110
:10068000B8010E944A0501C08FEF6896E6E00C941D
:10069000CD26A8E1B0E0EFE4F3E00C94B126698345
:1006A0007A838B839C832D833E834F83588789E095
:1006B000E82EF12CEC0EFD1ECE010196B7010E9432
:1006C000D2048E010F5E1F4FCE010596B8010E9425
:1006D000D2048985823040F08989823028F0C701B0
:1006E000B8010E944A0501C08FEF6896E6E00C94BD
:1006F000CD26A8E1B0E0EFE7F3E00C94B1266983E2
:100700007A838B839C832D833E834F83588789E034
:10071000E82EF12CEC0EFD1ECE010196B7010E94D1
:10072000D2048E010F5E1F4FCE010596B8010E94C4
:10073000D2048985823040F08989823028F0C7014F
:10074000B8010E944A0501C081E06896E6E00C9479
:10075000CD26ACE0B0E0EFEAF3E00C94B526698377
:100760007A838B839C83CE010196BE016B5F7F4FA2
:100770000E94D2048D81823061F1823050F1843048
:1007800021F48E81882351F12EC02F81388537FDC9
:1007900020C06E812F3131051CF06623F9F023C093
:1007A0008EE190E0821B930B29853A854B855C8511
:1007B00004C056954795379527958A95D2F76623B5
:1007C000B1F050954095309521953F4F4F4F5F4F79
:1007D0000EC020E030E040E050E009C02FEF3FEFD6
:1007E0004FEF5FE704C020E030E040E050E8B9019F
:1007F000CA012C96E2E00C94D126DF92EF92FF9290
:100800000F931F93FC01E480F58006811781D1804E
:100810008081823048F480E090E0A0E1B0E0E82AF6
:10082000F92A0A2B1B2BA5C0843009F49FC0823003
:1008300021F4EE24FF24870105C0E114F104010531
:10084000110519F4E0E0F0E096C0628173819FEF3A
:10085000623879070CF05BC022E83FEF261B370BAC
:100860002A3131052CF020E030E040E050E02AC091
:10087000B801A701022E04C0769567955795479554
:100880000A94D2F781E090E0A0E0B0E004C0880FC5
:10089000991FAA1FBB1F2A95D2F70197A109B10979
:1008A0008E219F21A023B1230097A105B10521F03E
:1008B00081E090E0A0E0B0E09A01AB01282B392B59
:1008C0004A2B5B2BDA01C9018F779070A070B07052
:1008D00080349105A105B10539F427FF09C0205CDA
:1008E0003F4F4F4F5F4F04C0215C3F4F4F4F5F4F13
:1008F000E0E0F0E02030A0E03A07A0E04A07A0E402
:100900005A0710F0E1E0F0E079018A0127C0603871
:10091000710564F5FB01E158FF4FD801C7018F77DE
:100920009070A070B07080349105A105B10539F4C4
:10093000E7FE0DC080E490E0A0E0B0E004C08FE3EB
:1009400090E0A0E0B0E0E80EF91E0A1F1B1F17FFA1
:1009500005C016950795F794E794319687E01695AC
:100960000795F794E7948A95D1F705C0EE24FF2404
:100970008701EFEFF0E06E2F679566276795902F60
:100980009F77D794DD24D7948E2F8695492F462BB9
:10099000582F5D29B701CA011F910F91FF90EF9069
:1009A000DF900895FC01DB01408151812281622F9B
:1009B0006F7770E0221F2227221F9381892F880FD3
:1009C000822B282F30E0991F9927991F11969C930D
:1009D000119721153105A9F54115510561057105DD
:1009E00011F482E037C082E89FEF13969C938E93B8
:1009F00012979A01AB0167E0220F331F441F551F66
:100A00006A95D1F783E08C930DC0220F331F441FEA
:100A1000551F12968D919C911397019713969C9355
:100A20008E931297203080E0380780E0480780E4FA
:100A3000580758F314962D933D934D935C93179755
:100A400008952F3F310579F4411551056105710570
:100A500019F484E08C93089564FF03C081E08C93C3
:100A600012C01C9210C02F57304013963C932E9307
:100A7000129783E08C9387E0440F551F661F771F02
:100A80008A95D1F7706414964D935D936D937C9322
:100A9000179708951F93DC01FB019C91923008F495
:100AA00047C08081823008F443C0943051F41196DD
:100AB0001C91843099F58181682F70E0611B710968
:100AC0003FC0843021F0923031F48230B9F181811D
:100AD000882389F12DC011961C9111978230F1F075
:100AE00081811817D9F412962D913C911397828128
:100AF00093818217930794F028173907BCF0149656
:100B00008D919D910D90BC91A02D248135814681C0
:100B10005781281739074A075B0718F4112341F05A
:100B20000AC082179307A407B50740F4112319F0F0
:100B300061E070E005C06FEF7FEF02C060E070E041
:100B4000CB011F910895DF93CF9300D000D0CDB794
:100B5000DEB789836A838981282F30E03C832B8329
:100B60008B819C818130910521F12B813C81223048
:100B700031052CF48B819C81009761F046C02B815C
:100B80003C812230310521F18B819C81833091059C
:100B900071F13BC0A3E5B0E0E3E5F0E080818F7B3D
:100BA0008C93A3E5B0E0E3E5F0E08081877F8C9350
:100BB0002CC0A3E5B0E0E3E5F0E0808180648C9395
:100BC000A3E5B0E0E3E5F0E08081877F8C931DC072
:100BD000A3E5B0E0E3E5F0E080818F7B8C93A3E5B3
:100BE000B0E0E3E5F0E0808188608C930EC0A3E57F
:100BF000B0E0E3E5F0E0808180648C93A3E5B0E0B1
:100C0000E3E5F0E0808188608C93A3E5B0E0E3E564
:100C1000F0E08081887F8C93A3E5B0E0E3E5F0E02D
:100C200090818A81892B8C930F900F900F900F9059
:100C3000CF91DF910895DF93CF9300D00F92CDB77E
:100C4000DEB789838981282F30E03B832A838A811C
:100C50009B818130910521F12A813B812230310530
:100C60002CF48A819B81009761F046C02A813B81E8
:100C70002230310521F18A819B818330910571F108
:100C80003BC0A3E5B0E0E3E5F0E080818F7E8C938C
:100C9000A3E5B0E0E3E5F0E080818F7D8C932CC08C
:100CA000A3E5B0E0E3E5F0E0808180618C93A3E50B
:100CB000B0E0E3E5F0E080818F7D8C931DC0A3E57B
:100CC000B0E0E3E5F0E080818F7E8C93A3E5B0E0B7
:100CD000E3E5F0E0808180628C930EC0A3E5B0E094
:100CE000E3E5F0E0808180618C93A3E5B0E0E3E58B
:100CF000F0E0808180628C930F900F900F90CF91E5
:100D0000DF910895DF93CF93CDB7DEB7A9E5B0E0CB
:100D1000E9E5F0E0808181608C93CF91DF910895C7
:100D2000DF93CF93CDB7DEB7A9E5B0E0E9E5F0E01A
:100D300080818E7F8C93CF91DF910895DF93CF9345
:100D4000CDB7DEB7A9E5B0E0E9E5F0E080818260EB
:100D50008C93CF91DF910895DF93CF93CDB7DEB71A
:100D6000A9E5B0E0E9E5F0E080818D7F8C93CF913B
:100D7000DF910895DF93CF9300D0CDB7DEB79A838C
:100D8000898389819A8190935701809356010F90AE
:100D90000F90CF91DF910895DF93CF9300D0CDB71F
:100DA000DEB79A83898389819A81909359018093D0
:100DB00058010F900F90CF91DF910895DF93CF935B
:100DC00000D000D0CDB7DEB789836A838981282F10
:100DD00030E03C832B838B819C818230910509F428
:100DE00056C02B813C812330310554F48B819C818A
:100DF000009799F02B813C812130310559F19DC03C
:100E00008B819C818330910509F45EC02B813C81EC
:100E10002430310509F475C090C0AFE4B0E0EFE4D0
:100E2000F0E080818E7F8C93AFE4B0E0EFE4F0E0FF
:100E300080818D7F8C93AEE4B0E0EEE4F0E08081C1
:100E4000877F8C93AEE4B0E0EEE4F0E080818F7EAB
:100E50008C9373C0AFE4B0E0EFE4F0E080818E7F6C
:100E60008C93AFE4B0E0EFE4F0E080818D7F8C9371
:100E7000AEE4B0E0EEE4F0E0808188608C93AEE414
:100E8000B0E0EEE4F0E0808180618C9356C0AFE486
:100E9000B0E0EFE4F0E080818E7F8C93AFE4B0E0CF
:100EA000EFE4F0E080818D7F8C93AEE4B0E0EEE47F
:100EB000F0E0808188608C93AEE4B0E0EEE4F0E096
:100EC00080818F7E8C9339C0AFE4B0E0EFE4F0E036
:100ED00080818E7F8C93AFE4B0E0EFE4F0E080811E
:100EE00082608C93AEE4B0E0EEE4F0E08081886054
:100EF0008C93AEE4B0E0EEE4F0E0808180618C930E
:100F00001CC0AFE4B0E0EFE4F0E0808181608C933E
:100F1000AFE4B0E0EFE4F0E0808182608C93AEE477
:100F2000B0E0EEE4F0E0808188608C93AEE4B0E065
:100F3000EEE4F0E0808180618C93AEE4B0E0EEE41A
:100F4000F0E08081887F8C93AEE4B0E0EEE4F0E0E6
:100F500090818A81892B8C930F900F900F900F9026
:100F6000CF91DF910895DF93CF9300D00F92CDB74B
:100F7000DEB789838981282F30E03B832A838A81E9
:100F80009B818130910521F12A813B8122303105FD
:100F90002CF48A819B81009761F046C02A813B81B5
:100FA0002230310521F18A819B818330910571F1D5
:100FB0003BC0AFE4B0E0EFE4F0E080818F7B8C9346
:100FC000AFE4B0E0EFE4F0E080818F778C932CC049
:100FD000AFE4B0E0EFE4F0E0808180648C93AFE4B4
:100FE000B0E0EFE4F0E080818F778C931DC0AFE438
:100FF000B0E0EFE4F0E080818F7B8C93AFE4B0E071
:10100000EFE4F0E0808180688C930EC0AFE4B0E044
:10101000EFE4F0E0808180648C93AFE4B0E0EFE433
:10102000F0E0808180688C930F900F900F90CF91AB
:10103000DF910895DF93CF9300D00F92CDB7DEB745
:1010400089838981282F30E03B832A838A819B8191
:101050008130910521F12A813B81223031052CF428
:101060008A819B81009761F046C02A813B812230B2
:10107000310521F18A819B818330910571F13BC05B
:10108000AFE4B0E0EFE4F0E080818F7E8C93AFE4DA
:10109000B0E0EFE4F0E080818F7D8C932CC0AFE472
:1010A000B0E0EFE4F0E0808180618C93AFE4B0E0E9
:1010B000EFE4F0E080818F7D8C931DC0AFE4B0E061
:1010C000EFE4F0E080818F7E8C93AFE4B0E0EFE45A
:1010D000F0E0808180628C930EC0AFE4B0E0EFE47A
:1010E000F0E0808180618C93AFE4B0E0EFE4F0E069
:1010F000808180628C930F900F900F90CF91DF9141
:101100000895DF93CF930F92CDB7DEB7898389819E
:10111000882341F4AEE4B0E0EEE4F0E08081806446
:101120008C930AC08981813039F4AEE4B0E0EEE4FA
:10113000F0E080818F7B8C930F90CF91DF910895A9
:10114000DF93CF93CDB7DEB7A9E5B0E0E9E5F0E0F6
:10115000808180628C93CF91DF910895DF93CF934C
:10116000CDB7DEB7A9E5B0E0E9E5F0E080818F7D9D
:101170008C93CF91DF910895DF93CF93CDB7DEB7F6
:10118000A9E5B0E0E9E5F0E0808184608C93CF913F
:10119000DF910895DF93CF93CDB7DEB7A9E5B0E037
:1011A000E9E5F0E080818B7F8C93CF91DF9108950A
:1011B000DF93CF93CDB7DEB7A9E5B0E0E9E5F0E086
:1011C000808180618C93CF91DF910895DF93CF93DD
:1011D000CDB7DEB7A9E5B0E0E9E5F0E080818F7E2C
:1011E0008C93CF91DF910895DF93CF93CDB7DEB786
:1011F000A9E5B0E0E9E5F0E0808188608C93CF91CB
:10120000DF910895DF93CF93CDB7DEB7A9E5B0E0C6
:10121000E9E5F0E08081877F8C93CF91DF9108959D
:10122000DF93CF9300D0CDB7DEB79A8389838981CE
:101230009A8190935B0180935A010F900F90CF9108
:10124000DF910895DF93CF9300D0CDB7DEB79A83B7
:10125000898389819A8190935D0180935C010F90CD
:101260000F90CF91DF910895DF93CF9300D0CDB74A
:10127000DEB79A83898389819A8190935F018093F5
:101280005E010F900F90CF91DF910895DF93CF9380
:1012900000D0CDB7DEB79A83898389819A819093F4
:1012A0006101809360010F900F90CF91DF910895BD
:1012B0001F920F920FB60F9211242F933F934F93CB
:1012C0005F936F937F938F939F93AF93BF93EF93AE
:1012D000FF93DF93CF93CDB7DEB780915A01909102
:1012E0005B01009729F0E0915A01F0915B010995AB
:1012F000CF91DF91FF91EF91BF91AF919F918F912E
:101300007F916F915F914F913F912F910F900FBE01
:101310000F901F9018951F920F920FB60F921124E5
:101320002F933F934F935F936F937F938F939F93ED
:10133000AF93BF93EF93FF93DF93CF93CDB7DEB718
:1013400080915C0190915D01009729F0E0915C0132
:10135000F0915D010995CF91DF91FF91EF91BF91E0
:10136000AF919F918F917F916F915F914F913F913D
:101370002F910F900FBE0F901F9018951F920F92F4
:101380000FB60F9211242F933F934F935F936F9358
:101390007F938F939F93AF93BF93EF93FF93DF93CD
:1013A000CF93CDB7DEB780915E0190915F0100973A
:1013B00029F0E0915E01F0915F010995CF91DF91F5
:1013C000FF91EF91BF91AF919F918F917F916F911D
:1013D0005F914F913F912F910F900FBE0F901F90F3
:1013E00018951F920F920FB60F9211242F933F93CF
:1013F0004F935F936F937F938F939F93AF93BF931D
:10140000EF93FF93DF93CF93CDB7DEB78091600169
:1014100090916101009729F0E0916001F0916101E4
:101420000995CF91DF91FF91EF91BF91AF919F917E
:101430008F917F916F915F914F913F912F910F907D
:101440000FBE0F901F9018951F920F920FB60F921C
:1014500011242F933F934F935F936F937F938F93B9
:101460009F93AF93BF93EF93FF93DF93CF93CDB74A
:10147000DEB78091560190915701009729F0E091D5
:101480005601F09157010995CF91DF91FF91EF91AE
:10149000BF91AF919F918F917F916F915F914F918C
:1014A0003F912F910F900FBE0F901F9018951F9294
:1014B0000F920FB60F9211242F933F934F935F9388
:1014C0006F937F938F939F93AF93BF93EF93FF930C
:1014D000DF93CF93CDB7DEB780915801909159013A
:1014E000009729F0E0915801F09159010995CF91A9
:1014F000DF91FF91EF91BF91AF919F918F917F917C
:101500006F915F914F913F912F910F900FBE0F9070
:101510001F901895DF93CF9300D00F92CDB7DEB711
:1015200089838981282F30E03B832A838A819B81AC
:1015300081309105F9F02A813B812230310581F11A
:101540008A819B810097D1F5A5E5B0E0E5E5F0E063
:1015500080818E7F8C93A5E5B0E0E5E5F0E08081A9
:1015600082608C93ABE5B0E0EBE5F0E080818064D5
:101570008C9324C0A5E5B0E0E5E5F0E080818B7FA9
:101580008C93A5E5B0E0E5E5F0E0808188608C9380
:10159000ABE5B0E0EBE5F0E0808180688C930EC0B5
:1015A000A4E5B0E0E4E5F0E0808180648C93ABE5F5
:1015B000B0E0EBE5F0E0808180628C930F900F90BB
:1015C0000F90CF91DF910895DF93CF9300D000D09B
:1015D0000F92CDB7DEB789837B836A838981282FF9
:1015E00030E03D832C838C819D818130910581F099
:1015F0002C813D812230310591F08C819D810097B5
:10160000A1F48A819B8190938101809380010DC018
:101610008A819B8190937D0180937C0106C08A81A1
:101620009B8190937F0180937E010F900F900F908C
:101630000F900F90CF91DF9108951F920F920FB6E8
:101640000F9211242F933F934F935F936F937F9348
:101650008F939F93AF93BF93EF93FF93DF93CF93BA
:10166000CDB7DEB7E0918001F09181010995CF916E
:10167000DF91FF91EF91BF91AF919F918F917F91FA
:101680006F915F914F913F912F910F900FBE0F90EF
:101690001F9018951F920F920FB60F9211242F933F
:1016A0003F934F935F936F937F938F939F93AF93EA
:1016B000BF93EF93FF93DF93CF93CDB7DEB7E09166
:1016C0007C01F0917D010995CF91DF91FF91EF9120
:1016D000BF91AF919F918F917F916F915F914F914A
:1016E0003F912F910F900FBE0F901F9018951F9252
:1016F0000F920FB60F9211242F933F934F935F9346
:101700006F937F938F939F93AF93BF93EF93FF93C9
:10171000DF93CF93CDB7DEB7E0917E01F0917F01EB
:101720000995CF91DF91FF91EF91BF91AF919F917B
:101730008F917F916F915F914F913F912F910F907A
:101740000FBE0F901F901895DF93CF93CDB7DEB7E4
:101750002A970FB6F894DEBF0FBECDBF8B836C8384
:101760008B819AE0692F0E944826892F8A838B817A
:101770009AE0692F0E94482689838C81282F30E0C7
:101780003A87298789859A85009739F029853A858E
:101790002130310509F476C0E4C08981282F30E07A
:1017A00038872F838F8198858230910561F12F8151
:1017B00038852330310534F48F8198858130910547
:1017C00069F0CFC02F8138852330310589F18F81B1
:1017D00098858430910509F440C0C3C0AAE3B0E005
:1017E000EAE3F0E08081482F8A81282F30E081E011
:1017F00090E0022E02C0880F991F0A94E2F78095AC
:1018000084238C93AEC0A7E3B0E0E7E3F0E08081EF
:10181000482F8A81282F30E081E090E0022E02C01C
:10182000880F991F0A94E2F7809584238C9399C0BE
:10183000A4E3B0E0E4E3F0E08081482F8A81282F20
:1018400030E081E090E0022E02C0880F991F0A94D8
:10185000E2F7809584238C9384C0A1E3B0E0E1E3B8
:10186000F0E08081482F8A81282F30E081E090E0ED
:10187000022E02C0880F991F0A94E2F780958423F4
:101880008C936FC08981282F30E03E832D838D811A
:101890009E818230910551F12D813E8123303105A9
:1018A00034F48D819E818130910561F05AC02D8183
:1018B0003E812330310571F18D819E818430910507
:1018C000E9F14FC0AAE3B0E0EAE3F0E08081482FFD
:1018D0008A81282F30E081E090E0022E02C0880F3C
:1018E000991F0A94E2F7842B8C933BC0A7E3B0E0E6
:1018F000E7E3F0E08081482F8A81282F30E081E003
:1019000090E0022E02C0880F991F0A94E2F7842B00
:101910008C9327C0A4E3B0E0E4E3F0E08081482F9B
:101920008A81282F30E081E090E0022E02C0880FEB
:10193000991F0A94E2F7842B8C9313C0A1E3B0E0C3
:10194000E1E3F0E08081482F8A81282F30E081E0B8
:1019500090E0022E02C0880F991F0A94E2F7842BB0
:101960008C932A960FB6F894DEBF0FBECDBFCF91F1
:10197000DF910895DF93CF93CDB7DEB72A970FB6E7
:10198000F894DEBF0FBECDBF8B836C838B819AE052
:10199000692F0E944826892F8A838B819AE0692FBC
:1019A0000E94482689838C81282F30E03A87298736
:1019B00089859A85009739F029853A852130310546
:1019C00009F476C0E4C08981282F30E038872F835E
:1019D0008F8198858230910561F12F813885233080
:1019E000310534F48F8198858130910569F0CFC03D
:1019F0002F8138852330310589F18F819885843096
:101A0000910509F440C0C3C0ABE3B0E0EBE3F0E004
:101A10008081482F8A81282F30E081E090E0022EDB
:101A200002C0880F991F0A94E2F7809584238C9353
:101A3000AEC0A8E3B0E0E8E3F0E08081482F8A81FF
:101A4000282F30E081E090E0022E02C0880F991F1D
:101A50000A94E2F7809584238C9399C0A5E3B0E0C3
:101A6000E5E3F0E08081482F8A81282F30E081E093
:101A700090E0022E02C0880F991F0A94E2F7809529
:101A800084238C9384C0A2E3B0E0E2E3F0E08081A1
:101A9000482F8A81282F30E081E090E0022E02C09A
:101AA000880F991F0A94E2F7809584238C936FC066
:101AB0008981282F30E03E832D838D819E81823065
:101AC000910551F12D813E812330310534F48D8112
:101AD0009E818130910561F05AC02D813E81233075
:101AE000310571F18D819E8184309105E9F14FC0FE
:101AF000ABE3B0E0EBE3F0E08081482F8A81282F50
:101B000030E081E090E0022E02C0880F991F0A9415
:101B1000E2F7842B8C933BC0A8E3B0E0E8E3F0E06D
:101B20008081482F8A81282F30E081E090E0022ECA
:101B300002C0880F991F0A94E2F7842B8C9327C068
:101B4000A5E3B0E0E5E3F0E08081482F8A81282F0B
:101B500030E081E090E0022E02C0880F991F0A94C5
:101B6000E2F7842B8C9313C0A2E3B0E0E2E3F0E051
:101B70008081482F8A81282F30E081E090E0022E7A
:101B800002C0880F991F0A94E2F7842B8C932A963F
:101B90000FB6F894DEBF0FBECDBFCF91DF91089591
:101BA000DF93CF9300D000D000D0CDB7DEB78C83C9
:101BB0008C819AE0692F0E944826892F8B838C8123
:101BC0009AE0692F0E9448268A8319828A81282FE9
:101BD00030E03E832D834D815E814230510541F1DD
:101BE0008D819E818330910534F42D813E81213099
:101BF000310561F052C04D815E814330510551F194
:101C00008D819E8184309105B9F147C0E9E3F0E010
:101C10008081282F30E08B81882F90E0A90102C0BD
:101C2000559547958A95E2F7CA018170898335C039
:101C3000E6E3F0E08081282F30E08B81882F90E070
:101C4000A90102C0559547958A95E2F7CA018170AE
:101C5000898323C0E3E3F0E08081282F30E08B818B
:101C6000882F90E0A90102C0559547958A95E2F723
:101C7000CA018170898311C0E0E3F0E08081282FE0
:101C800030E08B81882F90E0A90102C055954795DF
:101C90008A95E2F7CA0181708983898126960FB6F9
:101CA000F894DEBF0FBECDBFCF91DF910895DF93D3
:101CB000CF9300D000D00F92CDB7DEB78B838B814E
:101CC0009AE0692F0E944826892F8A838B819AE0A7
:101CD000692F0E94482689838981282F30E03D831F
:101CE0002C838C819D818230910551F12C813D8125
:101CF0002330310534F48C819D818130910561F070
:101D00005AC02C813D812330310571F18C819D8138
:101D100084309105E9F14FC0ABE3B0E0EBE3F0E0D4
:101D20008081482F8A81282F30E081E090E0022EC8
:101D300002C0880F991F0A94E2F784278C933BC056
:101D4000A8E3B0E0E8E3F0E08081482F8A81282F03
:101D500030E081E090E0022E02C0880F991F0A94C3
:101D6000E2F784278C9327C0A5E3B0E0E5E3F0E039
:101D70008081482F8A81282F30E081E090E0022E78
:101D800002C0880F991F0A94E2F784278C9313C02E
:101D9000A2E3B0E0E2E3F0E08081482F8A81282FBF
:101DA00030E081E090E0022E02C0880F991F0A9473
:101DB000E2F784278C930F900F900F900F900F9065
:101DC000CF91DF910895DF93CF93CDB7DEB72A97F8
:101DD0000FB6F894DEBF0FBECDBF8B836C838B81B3
:101DE0009AE0692F0E944826892F8A838B819AE086
:101DF000692F0E94482689838C81282F30E03A87FA
:101E0000298789859A85009739F029853A85213077
:101E1000310509F476C0E4C08981282F30E0388785
:101E20002F838F8198858230910561F12F813885CC
:101E30002330310534F48F8198858130910569F024
:101E4000CFC02F8138852330310589F18F81988566
:101E50008430910509F440C0C3C0ABE3B0E0EBE3CC
:101E6000F0E08081482F8A81282F30E081E090E0E7
:101E7000022E02C0880F991F0A94E2F780958423EE
:101E80008C93AEC0A8E3B0E0E8E3F0E08081482F97
:101E90008A81282F30E081E090E0022E02C0880F76
:101EA000991F0A94E2F7809584238C9399C0A5E347
:101EB000B0E0E5E3F0E08081482F8A81282F30E010
:101EC00081E090E0022E02C0880F991F0A94E2F789
:101ED000809584238C9384C0A2E3B0E0E2E3F0E039
:101EE0008081482F8A81282F30E081E090E0022E07
:101EF00002C0880F991F0A94E2F7809584238C937F
:101F00006FC08981282F30E03E832D838D819E8193
:101F10008230910551F12D813E812330310534F419
:101F20008D819E818130910561F05AC02D813E8165
:101F30002330310571F18D819E8184309105E9F165
:101F40004FC0ABE3B0E0EBE3F0E08081482F8A8143
:101F5000282F30E081E090E0022E02C0880F991F08
:101F60000A94E2F7842B8C933BC0A8E3B0E0E8E34B
:101F7000F0E08081482F8A81282F30E081E090E0D6
:101F8000022E02C0880F991F0A94E2F7842B8C93CB
:101F900027C0A5E3B0E0E5E3F0E08081482F8A8127
:101FA000282F30E081E090E0022E02C0880F991FB8
:101FB0000A94E2F7842B8C9313C0A2E3B0E0E2E32F
:101FC000F0E08081482F8A81282F30E081E090E086
:101FD000022E02C0880F991F0A94E2F7842B8C937B
:101FE0002A960FB6F894DEBF0FBECDBFCF91DF911A
:101FF0000895DF93CF93CDB7DEB7A7E2B0E0E7E275
:10200000F0E0808180648C93A7E2B0E0E7E2F0E04A
:1020100080818F778C93A7E2B0E0E7E2F0E08081E7
:102020008F7D8C93A6E2B0E0E6E2F0E080818160F3
:102030008C93A6E2B0E0E6E2F0E0808182608C93CF
:10204000A6E2B0E0E6E2F0E0808184608C93A6E254
:10205000B0E0E6E2F0E0808180628C93A6E2B0E03E
:10206000E6E2F0E0808180688C93A6E2B0E0E6E2F0
:10207000F0E0808180648C93CF91DF910895DF93AD
:10208000CF930F92CDB7DEB78983A7E2B0E0E7E246
:10209000F0E08081807E8C93A7E2B0E0E7E2F0E0A0
:1020A00090818981892B8C93A6E2B0E0E6E2F0E092
:1020B000808180648C93E6E2F0E0808182958F706D
:1020C0008130C9F3E4E2F0E0808191810F90CF91FB
:1020D000DF910895DF93CF9300D00F92CDB7DEB795
:1020E00089838981282F30E03B832A838A819B81E1
:1020F00081309105D1F02A813B81223031052CF4C9
:102100008A819B81009761F01EC02A813B81223029
:10211000310581F08A819B818330910581F013C064
:102120008FE260E00E94A40B0EC08EE260E00E948D
:10213000A40B09C08DE260E00E94A40B04C08BE2F6
:1021400060E00E94A40B0F900F900F90CF91DF9151
:102150000895DF93CF93CDB7DEB7EC970FB6F89421
:10216000DEBF0FBECDBF8AAF81E089AF8AAD282F19
:1021700030E03CAF2BAF8BAD9CAD8130910509F4C5
:1021800097C02BAD3CAD223031052CF48BAD9CAD0E
:10219000009771F00BC22BAD3CAD2230310509F434
:1021A00007C18BAD9CAD8330910509F481C1FEC19F
:1021B0008FE20E94D00D882309F0F8C180E090E002
:1021C000A8E4B2E48DAB9EABAFABB8AF6DA97EA96E
:1021D0008FA998AD20E030E04AE755E40E941F0245
:1021E000DC01CB0189AB9AABABABBCAB69A97AA9DB
:1021F0008BA99CA920E030E040E85FE30E947903CE
:1022000088232CF481E090E098AB8FA73FC069A9A8
:102210007AA98BA99CA920E03FEF4FE757E40E94E1
:10222000190318164CF56DA97EA98FA998AD20E069
:1022300030E040E251E40E941F02DC01CB01BC010E
:10224000CD010E944900DC01CB0198AB8FA70FC0E4
:1022500080E991E09EA78DA78DA59EA50197F1F736
:102260009EA78DA78FA598A9019798AB8FA78FA53B
:1022700098A9009769F714C069A97AA98BA99CA9A4
:102280000E944900DC01CB0198AB8FA78FA598A9CC
:102290009CA78BA78BA59CA50197F1F79CA78BA763
:1022A0008FE20E94D00D882309F080C119AE7EC153
:1022B0008EE20E94D00D882309F078C180E090E082
:1022C000A8E4B2E48FA398A7A9A7BAA76FA178A59D
:1022D00089A59AA520E030E04AE755E40E941F0254
:1022E000DC01CB018BA39CA3ADA3BEA36BA17CA1FE
:1022F0008DA19EA120E030E040E85FE30E947903D9
:1023000088232CF481E090E09AA389A33FC06BA1BD
:102310007CA18DA19EA120E03FEF4FE757E40E94F2
:10232000190318164CF56FA178A589A59AA520E088
:1023300030E040E251E40E941F02DC01CB01BC010D
:10234000CD010E944900DC01CB019AA389A30FC0F3
:1023500080E991E098A38F8F8F8D98A10197F1F775
:1023600098A38F8F89A19AA101979AA389A389A184
:102370009AA1009769F714C06BA17CA18DA19EA1C1
:102380000E944900DC01CB019AA389A389A19AA1EB
:102390009E8F8D8F8D8D9E8D0197F1F79E8F8D8FE6
:1023A0008EE20E94D00D882309F000C119AEFEC054
:1023B0008DE20E94D00D882309F0F8C080E090E003
:1023C000A8E4B2E4898F9A8FAB8FBC8F698D7A8D28
:1023D0008B8D9C8D20E030E04AE755E40E941F027F
:1023E000DC01CB018D8B9E8BAF8BB88F6D897E8985
:1023F0008F89988D20E030E040E85FE30E94790308
:1024000088232CF481E090E09C8B8B8B3FC06D89FE
:102410007E898F89988D20E03FEF4FE757E40E9437
:10242000190318164CF5698D7A8D8B8D9C8D20E0E3
:1024300030E040E251E40E941F02DC01CB01BC010C
:10244000CD010E944900DC01CB019C8B8B8B0FC01E
:1024500080E991E09A8B898B89899A890197F1F7B4
:102460009A8B898B8B899C8901979C8B8B8B8B8911
:102470009C89009769F714C06D897E898F89988D32
:102480000E944900DC01CB019C8B8B8B8B899C8942
:10249000988B8F878F8598890197F1F7988B8F8715
:1024A0008DE20E94D00D882309F080C019AE7EC055
:1024B0008BE20E94D00D882309F078C080E090E084
:1024C000A8E4B2E48B879C87AD87BE876B857C854B
:1024D0008D859E8520E030E04AE755E40E941F028A
:1024E000DC01CB018F839887A987BA876F817885B4
:1024F00089859A8520E030E040E85FE30E94790317
:1025000088232CF481E090E09E838D833FC06F810F
:10251000788589859A8520E03FEF4FE757E40E9450
:10252000190318164CF56B857C858D859E8520E0FA
:1025300030E040E251E40E941F02DC01CB01BC010B
:10254000CD010E944900DC01CB019E838D830FC029
:1025500080E991E09C838B838B819C810197F1F7CB
:102560009C838B838D819E8101979E838D838D813A
:102570009E81009769F714C06F81788589859A8557
:102580000E944900DC01CB019E838D838D819E8159
:102590009A83898389819A810197F1F79A83898344
:1025A0008BE20E94D00D882309F419AE89ADEC9618
:1025B0000FB6F894DEBF0FBECDBFCF91DF91089567
:1025C000DF93CF9300D00F92CDB7DEB78983898197
:1025D000282F30E03B832A838A819B8182309105BA
:1025E000D9F02A813B812330310534F48A819B81E3
:1025F0008130910561F01EC02A813B812330310575
:1026000081F08A819B818430910581F013C080E143
:1026100061E00E94A40B0EC08FE061E00E94A40B59
:1026200009C08EE061E00E94A40B04C08BE161E070
:102630000E94A40B0F900F900F90CF91DF910895FF
:10264000DF93CF9300D00F92CDB7DEB78983898116
:10265000282F30E03B832A838A819B818230910539
:10266000D9F02A813B812330310534F48A819B8162
:102670008130910561F01EC02A813B8123303105F4
:1026800081F08A819B818430910581F013C080E1C3
:1026900061E00E94BA0C0EC08FE061E00E94BA0CAB
:1026A00009C08EE061E00E94BA0C04C08BE161E0D9
:1026B0000E94BA0C0F900F900F90CF91DF91089568
:1026C000DF93CF9300D00F92CDB7DEB78983898196
:1026D000282F30E03B832A838A819B8182309105B9
:1026E000D9F02A813B812330310534F48A819B81E2
:1026F0008130910561F01EC02A813B812330310574
:1027000081F08A819B818430910581F013C080E142
:1027100060E00E94BA0C0EC08FE060E00E94BA0C2C
:1027200009C08EE060E00E94BA0C04C08BE160E05A
:102730000E94BA0C0F900F900F90CF91DF910895E7
:102740000F931F93DF93CF93CDB7DEB7C954D0401B
:102750000FB6F894DEBF0FBECDBFFE01E95BFF4FA1
:102760008083FE01E95BFF4F8081282F30E02A96AD
:102770003FAF2EAF2A972A968EAD9FAD2A97823013
:10278000910509F420C12A96EEADFFAD2A97E330FA
:10279000F10544F42A962EAD3FAD2A97213031053C
:1027A00091F081C22A968EAD9FAD2A978330910514
:1027B00009F484C12A96EEADFFAD2A97E430F10505
:1027C00009F4F7C170C280E160E00E94BA0CFE011A
:1027D000ED5BFF4F80E090E0A6E9B3E48083918356
:1027E000A283B3838E01015C1F4FFE01ED5BFF4F9F
:1027F000608171818281938120E030E04AE755E475
:102800000E941F02DC01CB01F80180839183A28327
:10281000B383FE01FF96608171818281938120E004
:1028200030E040E85FE30E94790388232CF481E0E4
:1028300090E09EAF8DAF46C0FE01FF966081718132
:102840008281938120E03FEF4FE757E40E94190314
:10285000181664F5FE01ED5BFF4F60817181828186
:10286000938120E030E040E251E40E941F02DC014D
:10287000CB01BC01CD010E944900DC01CB019EAF20
:102880008DAF0FC080E991E09CAF8BAF8BAD9CAD5D
:102890000197F1F79CAF8BAF8DAD9EAD01979EAFC9
:1028A0008DAF8DAD9EAD009769F716C0FE01FF9606
:1028B00060817181828193810E944900DC01CB019A
:1028C0009EAF8DAF8DAD9EAD9AAF89AF89AD9AADFC
:1028D0000197F1F79AAF89AF80E161E00E94BA0CED
:1028E00080E090E0A6E9B3E48DAB9EABAFABB8AFB0
:1028F0006DA97EA98FA998AD20E030E04AE755E4A4
:102900000E941F02DC01CB0189AB9AABABABBCAB25
:1029100069A97AA98BA99CA920E030E040E85FE38F
:102920000E94790388232CF481E090E098AB8FA774
:102930003FC069A97AA98BA99CA920E03FEF4FE786
:1029400057E40E94190318164CF56DA97EA98FA9AA
:1029500098AD20E030E040E251E40E941F02DC012B
:10296000CB01BC01CD010E944900DC01CB0198AB39
:102970008FA70FC080E991E09EA78DA78DA59EA58A
:102980000197F1F79EA78DA78FA598A9019798ABFE
:102990008FA78FA598A9009769F785C169A97AA91A
:1029A0008BA99CA90E944900DC01CB0198AB8FA7A1
:1029B0008FA598A99CA78BA78BA59CA50197F1F73C
:1029C0009CA78BA770C18FE061E00E94BA0C80E0E9
:1029D00090E0A6E9B3E48FA398A7A9A7BAA76FA12F
:1029E00078A589A59AA520E030E04AE755E40E9441
:1029F0001F02DC01CB018BA39CA3ADA3BEA36BA1E3
:102A00007CA18DA19EA120E030E040E85FE30E9420
:102A1000790388232CF481E090E09AA389A33FC036
:102A20006BA17CA18DA19EA120E03FEF4FE757E471
:102A30000E94190318164CF56FA178A589A59AA5CF
:102A400020E030E040E251E40E941F02DC01CB01B3
:102A5000BC01CD010E944900DC01CB019AA389A3EE
:102A60000FC080E991E098A38F8F8F8D98A1019777
:102A7000F1F798A38F8F89A19AA101979AA389A3AF
:102A800089A19AA1009769F714C06BA17CA18DA1BF
:102A90009EA10E944900DC01CB019AA389A389A1D0
:102AA0009AA19E8F8D8F8D8D9E8D0197F1F79E8FB0
:102AB0008D8F8FE060E00E94BA0CF5C08EE061E07F
:102AC0000E94BA0C80E090E0A6E9B3E4898F9A8F67
:102AD000AB8FBC8F698D7A8D8B8D9C8D20E030E023
:102AE0004AE755E40E941F02DC01CB018D8B9E8BCF
:102AF000AF8BB88F6D897E898F89988D20E030E00B
:102B000040E85FE30E94790388232CF481E090E0A1
:102B10009C8B8B8B3FC06D897E898F89988D20E03F
:102B20003FEF4FE757E40E94190318164CF5698DE3
:102B30007A8D8B8D9C8D20E030E040E251E40E9444
:102B40001F02DC01CB01BC01CD010E944900DC0168
:102B5000CB019C8B8B8B0FC080E991E09A8B898B8A
:102B600089899A890197F1F79A8B898B8B899C893E
:102B700001979C8B8B8B8B899C89009769F714C07C
:102B80006D897E898F89988D0E944900DC01CB0177
:102B90009C8B8B8B8B899C89988B8F878F85988951
:102BA0000197F1F7988B8F878EE060E00E94BA0C56
:102BB0007AC08BE161E00E94BA0C80E090E0A6E967
:102BC000B3E48B879C87AD87BE876B857C858D85BD
:102BD0009E8520E030E04AE755E40E941F02DC01B8
:102BE000CB018F839887A987BA876F81788589857C
:102BF0009A8520E030E040E85FE30E947903882373
:102C00002CF481E090E09E838D833FC06F817885B6
:102C100089859A8520E03FEF4FE757E40E9419032A
:102C200018164CF56B857C858D859E8520E030E0FF
:102C300040E251E40E941F02DC01CB01BC01CD0146
:102C40000E944900DC01CB019E838D830FC080E987
:102C500091E09C838B838B819C810197F1F79C830E
:102C60008B838D819E8101979E838D838D819E8133
:102C7000009769F714C06F81788589859A850E94CD
:102C80004900DC01CB019E838D838D819E819A83D7
:102C9000898389819A810197F1F79A8389838BE1EE
:102CA00060E00E94BA0CC75BDF4F0FB6F894DEBF3E
:102CB0000FBECDBFCF91DF911F910F910895DF938C
:102CC000CF9300D00F92CDB7DEB789838981282FAB
:102CD00030E03B832A838A819B8182309105D1F049
:102CE0002A813B812330310534F48A819B818130F4
:102CF000910561F01AC02A813B812330310571F0C2
:102D00008A819B818430910569F00FC080E10E9427
:102D1000570E0BC08FE00E94570E07C08EE00E9436
:102D2000570E03C08BE10E94570E0F900F900F902B
:102D3000CF91DF910895DF93CF93CDB7DEB784E1D4
:102D400061E00E94A40B85E161E00E94A40B86E192
:102D500061E00E94A40B88E161E00E94A40B8DE079
:102D600061E00E94A40B8CE061E00E94A40B83E36D
:102D70000E94051982E30E94051988E20E94051944
:102D80008CE00E94051982E00E94051981E00E94F2
:102D90000519CF91DF910895DF93CF93CDB7DEB7BB
:102DA000E9970FB6F894DEBF0FBECDBF89AF8DE0B7
:102DB00061E00E94BA0C89AD82958F70982F917056
:102DC00084E1692F0E94BA0C89AD8295869587703F
:102DD000982F917085E1692F0E94BA0C89AD829578
:102DE000869586958370982F917086E1692F0E9451
:102DF000BA0C89AD982F991F9927991F88E1692FDF
:102E00000E94BA0C8CE061E00E94BA0C80E090E075
:102E1000A0E8BFE38DAB9EABAFABB8AF6DA97EA909
:102E20008FA998AD20E030E04AE755E40E941F02E8
:102E3000DC01CB0189AB9AABABABBCAB69A97AA97E
:102E40008BA99CA920E030E040E85FE30E94790371
:102E500088232CF481E090E098AB8FA73FC069A94C
:102E60007AA98BA99CA920E03FEF4FE757E40E9485
:102E7000190318164CF56DA97EA98FA998AD20E00D
:102E800030E040E251E40E941F02DC01CB01BC01B2
:102E9000CD010E944900DC01CB0198AB8FA70FC088
:102EA00080E991E09EA78DA78DA59EA50197F1F7DA
:102EB0009EA78DA78FA598A9019798AB8FA78FA5DF
:102EC00098A9009769F714C069A97AA98BA99CA948
:102ED0000E944900DC01CB0198AB8FA78FA598A970
:102EE0009CA78BA78BA59CA50197F1F79CA78BA707
:102EF0008CE060E00E94BA0C80E090E0A0E8BFE3C4
:102F00008FA398A7A9A7BAA76FA178A589A59AA505
:102F100020E030E04AE755E40E941F02DC01CB01CB
:102F20008BA39CA3ADA3BEA36BA17CA18DA19EA1ED
:102F300020E030E040E85FE30E94790388232CF42E
:102F400081E090E09AA389A33FC06BA17CA18DA1F1
:102F50009EA120E03FEF4FE757E40E9419031816A7
:102F60004CF56FA178A589A59AA520E030E040E254
:102F700051E40E941F02DC01CB01BC01CD010E9483
:102F80004900DC01CB019AA389A30FC080E991E03D
:102F900098A38F8F8F8D98A10197F1F798A38F8FAA
:102FA00089A19AA101979AA389A389A19AA10097BF
:102FB00069F714C06BA17CA18DA19EA10E9449005C
:102FC000DC01CB019AA389A389A19AA19E8F8D8F41
:102FD0008D8D9E8D0197F1F79E8F8D8F89AD982FE6
:102FE000917084E1692F0E94BA0C89AD8695982F63
:102FF000917085E1692F0E94BA0C89AD86958695FE
:10300000982F917086E1692F0E94BA0C89AD869540
:1030100086958695982F917088E1692F0E94BA0C49
:103020008CE061E00E94BA0C80E090E0A0E8BFE391
:10303000898F9A8FAB8FBC8F698D7A8D8B8D9C8D8C
:1030400020E030E04AE755E40E941F02DC01CB019A
:103050008D8B9E8BAF8BB88F6D897E898F89988D74
:1030600020E030E040E85FE30E94790388232CF4FD
:1030700081E090E09C8B8B8B3FC06D897E898F892E
:10308000988D20E03FEF4FE757E40E941903181690
:103090004CF5698D7A8D8B8D9C8D20E030E040E27F
:1030A00051E40E941F02DC01CB01BC01CD010E9452
:1030B0004900DC01CB019C8B8B8B0FC080E991E038
:1030C0009A8B898B89899A890197F1F79A8B898BD9
:1030D0008B899C8901979C8B8B8B8B899C89009712
:1030E00069F714C06D897E898F89988D0E94490087
:1030F000DC01CB019C8B8B8B8B899C89988B8F8778
:103100008F8598890197F1F7988B8F878CE060E025
:103110000E94BA0C80E090E0A0EAB0E48B879C8724
:10312000AD87BE876B857C858D859E8520E030E0F0
:103130004AE755E40E941F02DC01CB018F83988788
:10314000A987BA876F81788589859A8520E030E0E4
:1031500040E85FE30E94790388232CF481E090E04B
:103160009E838D833FC06F81788589859A8520E015
:103170003FEF4FE757E40E94190318164CF56B8593
:103180007C858D859E8520E030E040E251E40E9400
:103190001F02DC01CB01BC01CD010E944900DC0112
:1031A000CB019E838D830FC080E991E09C838B834C
:1031B0008B819C810197F1F79C838B838D819E810C
:1031C00001979E838D838D819E81009769F714C03E
:1031D0006F81788589859A850E944900DC01CB0141
:1031E0009E838D838D819E819A83898389819A8133
:1031F0000197F1F79A838983E9960FB6F894DEBFB9
:103200000FBECDBFCF91DF910895DF93CF93CDB7A0
:10321000DEB7E9970FB6F894DEBF0FBECDBF89AF1A
:103220008DE060E00E94BA0C89AD82958F70982F76
:10323000917084E1692F0E94BA0C89AD82958695C0
:103240008770982F917085E1692F0E94BA0C89AD23
:103250008295869586958370982F917086E1692F67
:103260000E94BA0C89AD982F991F9927991F88E160
:10327000692F0E94BA0C8CE061E00E94BA0C80E0D9
:1032800090E0A0E8BFE38DAB9EABAFABB8AF6DA94C
:103290007EA98FA998AD20E030E04AE755E40E946E
:1032A0001F02DC01CB0189AB9AABABABBCAB69A90C
:1032B0007AA98BA99CA920E030E040E85FE30E9456
:1032C000790388232CF481E090E098AB8FA73FC06E
:1032D00069A97AA98BA99CA920E03FEF4FE757E4A1
:1032E0000E94190318164CF56DA97EA98FA998ADF7
:1032F00020E030E040E251E40E941F02DC01CB01FB
:10330000BC01CD010E944900DC01CB0198AB8FA725
:103310000FC080E991E09EA78DA78DA59EA501977E
:10332000F1F79EA78DA78FA598A9019798AB8FA7B6
:103330008FA598A9009769F714C069A97AA98BA9E4
:103340009CA90E944900DC01CB0198AB8FA78FA5F7
:1033500098A99CA78BA78BA59CA50197F1F79CA783
:103360008BA78CE060E00E94BA0C80E090E0A0E8BF
:10337000BFE38FA398A7A9A7BAA76FA178A589A52E
:103380009AA520E030E04AE755E40E941F02DC01E4
:10339000CB018BA39CA3ADA3BEA36BA17CA18DA1EC
:1033A0009EA120E030E040E85FE30E94790388239B
:1033B0002CF481E090E09AA389A33FC06BA17CA18B
:1033C0008DA19EA120E03FEF4FE757E40E94190333
:1033D00018164CF56FA178A589A59AA520E030E0D4
:1033E00040E251E40E941F02DC01CB01BC01CD018F
:1033F0000E944900DC01CB019AA389A30FC080E998
:1034000091E098A38F8F8F8D98A10197F1F798A3E2
:103410008F8F89A19AA101979AA389A389A19AA1C3
:10342000009769F714C06BA17CA18DA19EA10E9499
:103430004900DC01CB019AA389A389A19AA19E8F9F
:103440008D8F8D8D9E8D0197F1F79E8F8D8F89AD1C
:10345000982F917084E1692F0E94BA0C89AD8695EE
:10346000982F917085E1692F0E94BA0C89AD8695DD
:103470008695982F917086E1692F0E94BA0C89ADCC
:10348000869586958695982F917088E1692F0E9480
:10349000BA0C8CE061E00E94BA0C80E090E0A0E8F9
:1034A000BFE3898F9A8FAB8FBC8F698D7A8D8B8D9F
:1034B0009C8D20E030E04AE755E40E941F02DC01C9
:1034C000CB018D8B9E8BAF8BB88F6D897E898F8959
:1034D000988D20E030E040E85FE30E947903882384
:1034E0002CF481E090E09C8B8B8B3FC06D897E89B2
:1034F0008F89988D20E03FEF4FE757E40E94190332
:1035000018164CF5698D7A8D8B8D9C8D20E030E0FE
:1035100040E251E40E941F02DC01CB01BC01CD015D
:103520000E944900DC01CB019C8B8B8B0FC080E992
:1035300091E09A8B898B89899A890197F1F79A8B07
:10354000898B8B899C8901979C8B8B8B8B899C8920
:10355000009769F714C06D897E898F89988D0E94C4
:103560004900DC01CB019C8B8B8B8B899C89988BD0
:103570008F878F8598890197F1F7988B8F878CE0DB
:1035800060E00E94BA0C80E090E0A0EAB0E48B8793
:103590009C87AD87BE876B857C858D859E8520E069
:1035A00030E04AE755E40E941F02DC01CB018F8323
:1035B0009887A987BA876F81788589859A8520E061
:1035C00030E040E85FE30E94790388232CF481E037
:1035D00090E09E838D833FC06F81788589859A8531
:1035E00020E03FEF4FE757E40E94190318164CF50F
:1035F0006B857C858D859E8520E030E040E251E43E
:103600000E941F02DC01CB01BC01CD010E944900D8
:10361000DC01CB019E838D830FC080E991E09C8308
:103620008B838B819C810197F1F79C838B838D81A8
:103630009E8101979E838D838D819E81009769F77E
:1036400014C06F81788589859A850E944900DC01C4
:10365000CB019E838D838D819E819A83898389810D
:103660009A810197F1F79A838983E9960FB6F894C6
:10367000DEBF0FBECDBFCF91DF910895DF93CF9313
:1036800000D00F92CDB7DEB79B838A8319820EC01C
:103690008981282F30E08A819B81FC01E20FF31F92
:1036A00080810E94CC1689818F5F89838981282F30
:1036B00030E08A819B81FC01E20FF31F8081882327
:1036C00039F70F900F900F90CF91DF910895DF930E
:1036D000CF93CDB7DEB781E00E940519CF91DF917E
:1036E00008950F931F93DF93CF93CDB7DEB72F9736
:1036F0000FB6F894DEBF0FBECDBF6C877D878E8777
:103700009F8719828AE0FE013296DF01982F1D9271
:103710009A95E9F78C859D85AE85BF85BB2394F48A
:103720008C859D85AE85BF85B095A095909581953A
:103730009F4FAF4FBF4F8C879D87AE87BF878DE26E
:103740000E94CC168981082F112707FD10958C85C2
:103750009D85AE85BF852AE030E040E050E0BC01A9
:10376000CD010E946826DC01CB01282FCE010296F4
:10377000FC01E00FF11F20838C859D85AE85BF8500
:103780002AE030E040E050E0BC01CD010E94682614
:10379000DA01C9018C879D87AE87BF8789818F5FDA
:1037A00089838C859D85AE85BF850097A105B10570
:1037B00049F611C08981815089838981282F332757
:1037C00027FD3095CE010296FC01E20FF31F8081A8
:1037D000805D0E94CC168981181664F32F960FB66F
:1037E000F894DEBF0FBECDBFCF91DF911F910F9137
:1037F0000895DF93CF9300D000D000D0CDB7DEB7CF
:103800008D836E8380E8898380EC8A8384E98B834F
:1038100084ED8C838D81282F30E0CE010196FC0150
:10382000E20FF31F90818E81890F0E940519269661
:103830000FB6F894DEBF0FBECDBFCF91DF910895D4
:10384000DF93CF93CDB7DEB783E261E00E94A40B94
:1038500082E261E00E94A40B81E261E00E94A40B7D
:1038600083E261E00E94BA0C82E261E00E94BA0C3D
:1038700081E261E00E94BA0C8FE260E00E94A40B3A
:103880008EE260E00E94A40B8DE260E00E94A40B37
:10389000CF91DF910895DF93CF93CDB7DEB7AF9788
:1038A0000FB6F894DEBF0FBECDBFCE0142969AA3ED
:1038B00089A3E2E5F1E0FCA3EBA3F3E0FDA3EBA118
:1038C000FCA100808BA19CA101969CA38BA3E9A1E4
:1038D000FAA1008289A19AA101969AA389A39DA128
:1038E00091509DA3EDA1EE2351F7CE0145969FA3E4
:1038F0008EA3EFE4F1E0F9A7E8A7F3E0FAA7E8A5C3
:10390000F9A5008088A599A5019699A788A7EEA199
:10391000FFA100828EA19FA101969FA38EA39AA5CD
:1039200091509AA7EAA5EE2351F7CE0148969CA79D
:103930008BA7E6E4F1E0FEA7EDA7F9E0FFA7EDA570
:10394000FEA500808DA59EA501969EA78DA7EBA53F
:10395000FCA500828BA59CA501969CA78BA79FA583
:1039600091509FA7EFA5EE2351F781E0898B188A2C
:103970001F86188AC8C08889282F30E0CE01429659
:10398000FC01E20FF31F808160E00E94BA0C1F86E9
:10399000A7C08F85282F30E0CE014596FC01E20FAD
:1039A000F31F80810E94D00D882309F096C080E02B
:1039B00090E0A0E2B2E48B879C87AD87BE876B85E1
:1039C0007C858D859E8520E030E04AE755E40E94A5
:1039D0001F02DC01CB018F839887A987BA876F818B
:1039E000788589859A8520E030E040E85FE30E9491
:1039F000790388232CF481E090E09E838D833FC07F
:103A00006F81788589859A8520E03FEF4FE757E4FD
:103A10000E94190318164CF56B857C858D859E8553
:103A200020E030E040E251E40E941F02DC01CB01C3
:103A3000BC01CD010E944900DC01CB019E838D8336
:103A40000FC080E991E09C838B838B819C810197DF
:103A5000F1F79C838B838D819E8101979E838D835B
:103A60008D819E81009769F714C06F817885898563
:103A70009A850E944900DC01CB019E838D838D8154
:103A80009E819A83898389819A810197F1F79A832C
:103A900089838F85282F30E0CE014596FC01E20F07
:103AA000F31F80810E94D00D8823B9F48889282FC4
:103AB00030E08F85482F50E0C901880F991F820F91
:103AC000931F9E012F5F3F4F820F931F840F951FFF
:103AD000FC0177968081898B07C08F858F5F8F87E8
:103AE0008F85833008F455CF8889282F30E0CE01A8
:103AF0004296FC01E20FF31F808161E00E94BA0C44
:103B000088898F5F888B8889833008F434CF8989CE
:103B1000AF960FB6F894DEBF0FBECDBFCF91DF9149
:103B20000895DF93CF93CDB7DEB70E94201C0E948B
:103B3000F90F8AE060E00E94A40B81E00E94E0128D
:103B400083E00E94E01284E00E94E01282E00E9482
:103B5000E01284E261E00E94A40B83E00E946A10FC
:103B60008BE261E00E94BA0C0E949B1680E060E04C
:103B70000E94F91B83E060E00E94F91B89E990E054
:103B80000E943E1B80916901882381F483E06CE0F0
:103B90000E94F91B80EA90E00E943E1B83E060E1F6
:103BA0000E94F91B84EA90E00E943E1B82E060E1E3
:103BB0000E94F91B60E070E080E090E00E94711BC1
:103BC00085E261E00E94A40BCF91DF910895DF931D
:103BD000CF9300D0CDB7DEB71A820E944B1C8983E9
:103BE0008981823341F484E00E942013109277018E
:103BF00081E08A8306C08981813019F484E00E94C3
:103C000060138A810F900F90CF91DF910895DF9319
:103C1000CF93CDB7DEB7AB970FB6F894DEBF0FBE2C
:103C2000CDBF0E944B1C8BA78BA5833309F0A0C08E
:103C300080913601882309F09BC080916F0181300B
:103C400009F096C01092770183E00E94201381E072
:103C50008093620182E067E00E94F91B88EA90E0AD
:103C60000E943E1B82E067E00E94F91B8CEA90E014
:103C70000E943E1B82E080936F0184E261E00E941B
:103C8000BA0C80E090E0A0EAB2E48FA398A7A9A7BD
:103C9000BAA76FA178A589A59AA520E030E04AE7E8
:103CA00055E40E941F02DC01CB018BA39CA3ADA3B2
:103CB000BEA36BA17CA18DA19EA120E030E040E8D5
:103CC0005FE30E94790388232CF481E090E09AA3BB
:103CD00089A33FC06BA17CA18DA19EA120E03FEFF5
:103CE0004FE757E40E94190318164CF56FA178A509
:103CF00089A59AA520E030E040E251E40E941F022D
:103D0000DC01CB01BC01CD010E944900DC01CB01EB
:103D10009AA389A30FC080E991E098A38F8F8F8D1C
:103D200098A10197F1F798A38F8F89A19AA1019784
:103D30009AA389A389A19AA1009769F714C06BA1DE
:103D40007CA18DA19EA10E944900DC01CB019AA318
:103D500089A389A19AA19E8F8D8F8D8D9E8D0197AC
:103D6000F1F79E8F8D8F84E260E00E94BA0C33C120
:103D70008BA5833341F480916201813021F48091DD
:103D80006F01823069F080916401813049F0809147
:103D90003601853029F080913601823009F00CC15E
:103DA0008BA5833309F081C080913601853021F0E5
:103DB00080913601823019F481E00E94201384E260
:103DC00061E00E94BA0C80E090E0A8E4B2E4898F40
:103DD0009A8FAB8FBC8F698D7A8D8B8D9C8D20E0F7
:103DE00030E04AE755E40E941F02DC01CB018D8BD5
:103DF0009E8BAF8BB88F6D897E898F89988D20E0DF
:103E000030E040E85FE30E94790388232CF481E0EE
:103E100090E09C8B8B8B3FC06D897E898F89988DBC
:103E200020E03FEF4FE757E40E94190318164CF5C6
:103E3000698D7A8D8B8D9C8D20E030E040E251E4DD
:103E40000E941F02DC01CB01BC01CD010E94490090
:103E5000DC01CB019C8B8B8B0FC080E991E09A8BAE
:103E6000898B89899A890197F1F79A8B898B8B893C
:103E70009C8901979C8B8B8B8B899C89009769F718
:103E800014C06D897E898F89988D0E944900DC015C
:103E9000CB019C8B8B8B8B899C89988B8F878F8593
:103EA00098890197F1F7988B8F8783E00E946013C0
:103EB00081E080936F011092620182E067E00E94CE
:103EC000F91B8FEA90E00E943E1B80E090E0A8E49E
:103ED000B2E48B879C87AD87BE876B857C858D859B
:103EE0009E8520E030E04AE755E40E941F02DC0195
:103EF000CB018F839887A987BA876F817885898559
:103F00009A8520E030E040E85FE30E94790388234F
:103F10002CF481E090E09E838D833FC06F81788593
:103F200089859A8520E03FEF4FE757E40E94190307
:103F300018164CF56B857C858D859E8520E030E0DC
:103F400040E251E40E941F02DC01CB01BC01CD0123
:103F50000E944900DC01CB019E838D830FC080E964
:103F600091E09C838B838B819C810197F1F79C83EB
:103F70008B838D819E8101979E838D838D819E8110
:103F8000009769F714C06F81788589859A850E94AA
:103F90004900DC01CB019E838D838D819E819A83B4
:103FA000898389819A810197F1F79A83898384E2D1
:103FB00060E00E94BA0C0FC080916F01882359F411
:103FC00082E067E00E94F91B8FEA90E00E943E1BAE
:103FD00081E080936F01AB960FB6F894DEBF0FBE01
:103FE000CDBFCF91DF910895DF93CF93CDB7DEB7EB
:103FF000AA970FB6F894DEBF0FBECDBF80913601F1
:10400000853009F08CC01092360183E067E00E9491
:10401000F91B88EA90E00E943E1B83E067E00E9463
:10402000F91B84E40E94CC1684E261E00E94BA0C81
:1040300080E090E0A8E4B2E48FA398A7A9A7BAA76C
:104040006FA178A589A59AA520E030E04AE755E45C
:104050000E941F02DC01CB018BA39CA3ADA3BEA3D6
:104060006BA17CA18DA19EA120E030E040E85FE340
:104070000E94790388232CF481E090E09AA389A31D
:104080003FC06BA17CA18DA19EA120E03FEF4FE737
:1040900057E40E94190318164CF56FA178A589A55D
:1040A0009AA520E030E040E251E40E941F02DC01CA
:1040B000CB01BC01CD010E944900DC01CB019AA3D8
:1040C00089A30FC080E991E098A38F8F8F8D98A16D
:1040D0000197F1F798A38F8F89A19AA101979AA3CD
:1040E00089A389A19AA1009769F714C06BA17CA14B
:1040F0008DA19EA10E944900DC01CB019AA389A356
:1041000089A19AA19E8F8D8F8D8D9E8D0197F1F73C
:104110009E8F8D8F84E260E00E94BA0C27C180914F
:104120003601882309F08FC01092770181E08093D7
:10413000360183E067E00E94F91B88EA90E00E9464
:104140003E1B83E067E00E94F91B82E50E94CC16CB
:1041500084E261E00E94BA0C80E090E0A8E4B2E45E
:10416000898F9A8FAB8FBC8F698D7A8D8B8D9C8D4B
:1041700020E030E04AE755E40E941F02DC01CB0159
:104180008D8B9E8BAF8BB88F6D897E898F89988D33
:1041900020E030E040E85FE30E94790388232CF4BC
:1041A00081E090E09C8B8B8B3FC06D897E898F89ED
:1041B000988D20E03FEF4FE757E40E94190318164F
:1041C0004CF5698D7A8D8B8D9C8D20E030E040E23E
:1041D00051E40E941F02DC01CB01BC01CD010E9411
:1041E0004900DC01CB019C8B8B8B0FC080E991E0F7
:1041F0009A8B898B89899A890197F1F79A8B898B98
:104200008B899C8901979C8B8B8B8B899C890097D0
:1042100069F714C06D897E898F89988D0E94490045
:10422000DC01CB019C8B8B8B8B899C89988B8F8736
:104230008F8598890197F1F7988B8F8784E260E0EA
:104240000E94BA0C93C080913601813009F08EC073
:104250001092770185E08093360183E067E00E9449
:10426000F91B88EA90E00E943E1B83E067E00E9411
:10427000F91B8EE40E94CC1684E261E00E94BA0C25
:1042800080E090E0A8E4B2E48B879C87AD87BE878E
:104290006B857C858D859E8520E030E04AE755E47E
:1042A0000E941F02DC01CB018F839887A987BA8700
:1042B0006F81788589859A8520E030E040E85FE36A
:1042C0000E94790388232CF481E090E09E838D8303
:1042D0003FC06F81788589859A8520E03FEF4FE761
:1042E00057E40E94190318164CF56B857C858D8563
:1042F0009E8520E030E040E251E40E941F02DC0194
:10430000CB01BC01CD010E944900DC01CB019E83A1
:104310008D830FC080E991E09C838B838B819C818E
:104320000197F1F79C838B838D819E8101979E83FA
:104330008D838D819E81009769F714C06F81788588
:1043400089859A850E944900DC01CB019E838D837B
:104350008D819E819A83898389819A810197F1F762
:104360009A83898384E260E00E94BA0CAA960FB611
:10437000F894DEBF0FBECDBFCF91DF910895DF93DC
:10438000CF9300D00F92CDB7DEB780E00E943F10F0
:104390009B838A838A819B8121E08D32920728F05A
:1043A0008CE291E09B838A8308C08A819B8143E0F1
:1043B0008032940711F41B821A822A813B8188EC97
:1043C00090E0AC01249FC001259F900D349F900D7B
:1043D00011242CE231E0B9010E945426CB018983DB
:1043E0008981882F90E00F900F900F90CF91DF91EF
:1043F0000895DF93CF93CDB7DEB70E94BF2180939E
:104400006D0180913601882309F06EC0109277010A
:1044100080916D01853B20F088EC80936D014AC04E
:1044200080916D01803A20F080EA80936D0142C056
:1044300080916D018C3820F08CE880936D013AC03A
:1044400080916D01883720F088E780936D0132C03C
:1044500080916D01843620F084E680936D012AC03E
:1044600080916D01803520F080E580936D0122C040
:1044700080916D018C3320F08CE380936D011AC024
:1044800080916D01883220F088E280936D0112C026
:1044900080916D01843120F084E180936D010AC028
:1044A00080916D01882331F480916D01843110F485
:1044B00010926D01809136018230B1F081E069E0A7
:1044C0000E94F91B80916D01882F90E0A0E0B0E080
:1044D000BC01CD010E94711B81E069E00E94F91BC3
:1044E00088EA90E00E943E1BCF91DF910895DF9310
:1044F000CF930F92CDB7DEB70E944B1C898380917A
:104500003601882309F048C080916801882341F46E
:1045100082E06DE00E94F91B84EA90E00E943E1B5D
:1045200089818133D1F4809168018823B1F410929C
:10453000770181E08093680182E06DE00E94F91BC1
:1045400088EA90E00E943E1B82E06DE00E94F91B29
:1045500083EB90E00E943E1B1BC089818133C1F434
:10456000809168018130A1F41092770182E06DE0C2
:104570000E94F91B88EA90E00E943E1B82E06DE0F9
:104580000E94F91B84EA90E00E943E1B1092680191
:1045900084E00E94601308C082E06DE00E94F91B75
:1045A00084EA90E00E943E1B0F90CF91DF91089526
:1045B000DF93CF930F92CDB7DEB70E944B1C898358
:1045C000809136018823C1F589818533D1F48091AA
:1045D00069018823B1F41092770181E08093690129
:1045E00083E060E10E94F91B88EA90E00E943E1B94
:1045F00083E060E10E94F91B83EB90E00E943E1B88
:104600001BC089818533C1F4809169018130A1F497
:104610001092770183E060E10E94F91B88EA90E044
:104620000E943E1B83E060E10E94F91B84EA90E057
:104630000E943E1B109269010F90CF91DF91089567
:10464000DF93CF930F92CDB7DEB70E944B1C8983C7
:1046500080913601882389F589818733B1F41092DE
:10466000770180916A01865F80936A0182E060E150
:104670000E94F91B80916A01882F90E0A0E0B0E0D1
:10468000BC01CD010E94711B18C089818933A9F436
:104690001092770180916A018A5080936A0182E0CA
:1046A00060E10E94F91B80916A01882F90E0A0E0F0
:1046B000B0E0BC01CD010E94711B0F90CF91DF9142
:1046C0000895DF93CF93CDB7DEB790916D018091C0
:1046D0006A01891788F480916901813069F481E069
:1046E0000E94201380917601882359F40E9482064B
:1046F00081E08093760105C081E00E9460130E94F2
:104700009006CF91DF910895DF93CF93CDB7DEB7B9
:1047100080917701853069F40E94671B82E062E036
:104720000E94F91B86EB90E00E943E1B81E0809383
:104730006C01CF91DF910895DF93CF93CDB7DEB7B2
:1047400080916D019AE0692F0E944826982F8091F0
:104750006301891740F480916D019AE0692F0E94EE
:10476000482680936301CF91DF910895DF93CF9323
:10477000CDB7DEB780E060E00E94F91B89EC90E0E5
:104780000E943E1B80E061E10E94F91B809145017F
:10479000882F90E0A0E0B0E0BC01CD010E94711B29
:1047A00080E062E10E94F91B86ED90E00E943E1BD2
:1047B000CF91DF910895DF93CF930F92CDB7DEB7FE
:1047C0000E944B1C898380916C01882309F0ACC046
:1047D00080916E01882309F0A7C081E08093450194
:1047E0000E94B62381E060E00E94F91B89ED90E011
:1047F0000E943E1B82E060E00E94F91B82EE90E086
:104800000E943E1B81E06DE00E94F91B83EF90E067
:104810000E943E1B81E060E10E94F91B80916301D0
:10482000882F90E0A0E0B0E0BC01CD010E94711B98
:1048300083E060E00E94F91B89E990E00E943E1B42
:1048400080913601853081F483E067E00E94F91B96
:104850008EE40E94CC1681E069E00E94F91B88EA90
:1048600090E00E943E1B17C080913601882341F4DE
:1048700083E067E00E94F91B84E40E94CC160BC021
:1048800080913601813039F483E067E00E94F91BA2
:1048900082E50E94CC1683E06CE00E94F91B80EA5E
:1048A00090E00E943E1B80916901882349F483E0D7
:1048B00060E10E94F91B84EA90E00E943E1B14C054
:1048C00080916901813081F483E060E10E94F91BED
:1048D00088EF90E00E943E1B83E060E10E94F91B9C
:1048E0008CEA90E00E943E1B8981843339F4109257
:1048F000770181E080936E010E94671B0E94F9217D
:104900000E94D8220E9420230E94E71D0E9461235A
:1049100080917501813041F40E94E71D882321F0C8
:104920000E94F41F109275010F90CF91DF910895AE
:10493000DF93CF930F92CDB7DEB70E944B1C8983D4
:1049400080916C01882309F050C080916E01813004
:1049500009F049C082E0809345010E94B62381E0BE
:1049600069E00E94F91B8BEF90E00E943E1B82E001
:1049700060E00E94F91B81E091E00E943E1B809163
:104980006201813081F482E067E00E94F91B88EACD
:1049900090E00E943E1B82E067E00E94F91B8CEAD7
:1049A00090E00E943E1B80916201882381F482E0A6
:1049B00067E00E94F91B88EA90E00E943E1B82E0BB
:1049C00067E00E94F91B8FEA90E00E943E1B0E9464
:1049D000071E8981843339F41092770182E0809335
:1049E0006E010E94671B0E94E71D0F90CF91DF911F
:1049F0000895DF93CF930F92CDB7DEB70E944B1C83
:104A0000898380916C018823E9F480916E01823062
:104A1000C9F483E0809345010E94B62382E060E000
:104A20000E94F91B88E091E00E943E1B0E947722C1
:104A30008981843339F41092770183E080936E0189
:104A40000E94671B0F90CF91DF910895DF93CF9362
:104A50000F92CDB7DEB70E944B1C898380916C0109
:104A6000882309F067C080916E01833009F062C02D
:104A700084E0809345010E94B62381E060E00E94BB
:104A8000F91B85E191E00E943E1B81E068E00E94F5
:104A9000F91B80913B0190913C010E943E1B82E0FA
:104AA00060E00E94F91B8DE191E00E943E1B82E0D4
:104AB0006AE00E94F91B80917401882F90E0A0E0C9
:104AC000B0E0BC01CD010E94711B82E06DE00E944C
:104AD000F91B85E291E00E943E1B82E06EE00E949D
:104AE000F91B80917301882F90E0A0E0B0E0BC0139
:104AF000CD010E94711B82E060E10E94F91B85E2FA
:104B000091E00E943E1B82E061E10E94F91B8091CE
:104B10007201882F90E0A0E0B0E0BC01CD010E94BE
:104B2000711B8981843331F41092770110926E01E8
:104B30000E94671B0F90CF91DF910895DF93CF9371
:104B4000CDB7DEB70E94911D81E00E948A0A2BEC4E
:104B500035E281E0B9010E94E40A80E065E00E944C
:104B6000A30580E063E00E94DE060E94BC0885ED9C
:104B700095E20E94BA0685EF95E20E9410097894AA
:104B80000E9484230E94DB230E9498240E94F9241F
:104B90000E942625F5CFDF93CF93CDB7DEB781E016
:104BA00080937501CF91DF910895DF93CF93CDB7B7
:104BB000DEB7809178019091790101969093790107
:104BC0008093780180917801909179018D339105DE
:104BD00049F485E20E94570E1092790110927801F3
:104BE00010927601CF91DF910895DF93CF93CDB7E7
:104BF000DEB780917A0190917B01019690937B01C1
:104C000080937A0180917A0190917B0184309105A3
:104C100081F4809177018F5F809377010E949C23BC
:104C2000809172018F5F8093720110927B011092CC
:104C30007A01809172018C3379F41092720182E0D2
:104C400061E10E94F91B87E291E00E943E1B809186
:104C500073018F5F80937301809173018C3379F4BA
:104C60001092730182E06EE00E94F91B8BE291E0EA
:104C70000E943E1B809174018F5F8093740180912C
:104C80007401883111F410927401CF91DF9108956D
:104C9000991B79E004C0991F961708F0961B881F8E
:104CA0007A95C9F780950895AA1BBB1B51E107C0EF
:104CB000AA1FBB1FA617B70710F0A61BB70B881FAC
:104CC000991F5A95A9F780959095BC01CD0108953B
:104CD00097FB092E05260ED057FD04D014D00AD01C
:104CE000001C38F450954095309521953F4F4F4F1B
:104CF0005F4F0895F6F790958095709561957F4F79
:104D00008F4F9F4F0895A1E21A2EAA1BBB1BFD01D6
:104D10000DC0AA1FBB1FEE1FFF1FA217B307E4079A
:104D2000F50720F0A21BB30BE40BF50B661F771FF2
:104D3000881F991F1A9469F76095709580959095D2
:104D40009B01AC01BD01CF0108952F923F924F927C
:104D50005F926F927F928F929F92AF92BF92CF920B
:104D6000DF92EF92FF920F931F93CF93DF93CDB714
:104D7000DEB7CA1BDB0B0FB6F894DEBF0FBECDBF8C
:104D800009942A88398848885F846E847D848C845D
:104D90009B84AA84B984C884DF80EE80FD800C8166
:104DA0001B81AA81B981CE0FD11D0FB6F894DEBF49
:0C4DB0000FBECDBFED010895F894FFCFB9
:104DBC0053617475726461790053756E6461790026
:104DCC004D6F6E6461790054756573646179005739
:104DDC0065646E657364617900546875727364619F
:104DEC00790046726964617900524E44203A200081
:104DFC0053503A004F666600202020006F6E006F03
:104E0C006666004F6E005741524E494E47202D2D7D
:104E1C003E212121212121200057656C636F6D6596
:104E2C00202D2D3E20002F34005350454544203A70
:104E3C0020005350454544204C494D49544552207F
:104E4C003A20004B4D3A200020200020202020202A
:104E5C0000434353203A20004252414B45204153DA
:104E6C0053203A200044415445203A200054494DE7
:104E7C0045203A20003A002020200020200000008D
:104E8C000000000000000560006900700077007FE2
:104E9C000089009200013132333435363738392FDE
:064EAC002E2D232221003F
:00000001FF
